{
  "contractName": "ToDoList",
  "abi": [
    {
      "inputs": [
        {
          "internalType": "uint256",
          "name": "",
          "type": "uint256"
        }
      ],
      "name": "tasks",
      "outputs": [
        {
          "internalType": "string",
          "name": "description",
          "type": "string"
        },
        {
          "internalType": "bool",
          "name": "completed",
          "type": "bool"
        }
      ],
      "stateMutability": "view",
      "type": "function"
    },
    {
      "inputs": [
        {
          "internalType": "string",
          "name": "_description",
          "type": "string"
        }
      ],
      "name": "addTask",
      "outputs": [],
      "stateMutability": "nonpayable",
      "type": "function"
    },
    {
      "inputs": [
        {
          "internalType": "uint256",
          "name": "_taskId",
          "type": "uint256"
        }
      ],
      "name": "completeTask",
      "outputs": [],
      "stateMutability": "nonpayable",
      "type": "function"
    }
  ],
  "bytecode": "0x608060405234801561001057600080fd5b5061084a806100206000396000f3fe608060405234801561001057600080fd5b50600436106100415760003560e01c806367238562146100465780638d97767214610062578063e1e2955814610093575b600080fd5b610060600480360381019061005b9190610391565b6100af565b005b61007c60048036038101906100779190610410565b61012d565b60405161008a9291906104d7565b60405180910390f35b6100ad60048036038101906100a89190610410565b6101f6565b005b6000604051806040016040528083815260200160001515815250908060018154018082558091505060019003906000526020600020906002020160009091909190915060008201518160000190816101079190610713565b5060208201518160010160006101000a81548160ff021916908315150217905550505050565b6000818154811061013d57600080fd5b906000526020600020906002020160009150905080600001805461016090610536565b80601f016020809104026020016040519081016040528092919081815260200182805461018c90610536565b80156101d95780601f106101ae576101008083540402835291602001916101d9565b820191906000526020600020905b8154815290600101906020018083116101bc57829003601f168201915b5050505050908060010160009054906101000a900460ff16905082565b60016000828154811061020c5761020b6107e5565b5b906000526020600020906002020160010160006101000a81548160ff02191690831515021790555050565b6000604051905090565b600080fd5b600080fd5b600080fd5b600080fd5b6000601f19601f8301169050919050565b7f4e487b7100000000000000000000000000000000000000000000000000000000600052604160045260246000fd5b61029e82610255565b810181811067ffffffffffffffff821117156102bd576102bc610266565b5b80604052505050565b60006102d0610237565b90506102dc8282610295565b919050565b600067ffffffffffffffff8211156102fc576102fb610266565b5b61030582610255565b9050602081019050919050565b82818337600083830152505050565b600061033461032f846102e1565b6102c6565b9050828152602081018484840111156103505761034f610250565b5b61035b848285610312565b509392505050565b600082601f8301126103785761037761024b565b5b8135610388848260208601610321565b91505092915050565b6000602082840312156103a7576103a6610241565b5b600082013567ffffffffffffffff8111156103c5576103c4610246565b5b6103d184828501610363565b91505092915050565b6000819050919050565b6103ed816103da565b81146103f857600080fd5b50565b60008135905061040a816103e4565b92915050565b60006020828403121561042657610425610241565b5b6000610434848285016103fb565b91505092915050565b600081519050919050565b600082825260208201905092915050565b60005b8381101561047757808201518184015260208101905061045c565b60008484015250505050565b600061048e8261043d565b6104988185610448565b93506104a8818560208601610459565b6104b181610255565b840191505092915050565b60008115159050919050565b6104d1816104bc565b82525050565b600060408201905081810360008301526104f18185610483565b905061050060208301846104c8565b9392505050565b7f4e487b7100000000000000000000000000000000000000000000000000000000600052602260045260246000fd5b6000600282049050600182168061054e57607f821691505b60208210810361056157610560610507565b5b50919050565b60008190508160005260206000209050919050565b60006020601f8301049050919050565b600082821b905092915050565b6000600883026105c97fffffffffffffffffffffffffffffffffffffffffffffffffffffffffffffffff8261058c565b6105d3868361058c565b95508019841693508086168417925050509392505050565b6000819050919050565b600061061061060b610606846103da565b6105eb565b6103da565b9050919050565b6000819050919050565b61062a836105f5565b61063e61063682610617565b848454610599565b825550505050565b600090565b610653610646565b61065e818484610621565b505050565b5b818110156106825761067760008261064b565b600181019050610664565b5050565b601f8211156106c75761069881610567565b6106a18461057c565b810160208510156106b0578190505b6106c46106bc8561057c565b830182610663565b50505b505050565b600082821c905092915050565b60006106ea600019846008026106cc565b1980831691505092915050565b600061070383836106d9565b9150826002028217905092915050565b61071c8261043d565b67ffffffffffffffff81111561073557610734610266565b5b61073f8254610536565b61074a828285610686565b600060209050601f83116001811461077d576000841561076b578287015190505b61077585826106f7565b8655506107dd565b601f19841661078b86610567565b60005b828110156107b35784890151825560018201915060208501945060208101905061078e565b868310156107d057848901516107cc601f8916826106d9565b8355505b6001600288020188555050505b505050505050565b7f4e487b7100000000000000000000000000000000000000000000000000000000600052603260045260246000fdfea26469706673582212204097e853237b25c469c02922a23b8cf6ac4efb2f3105b9850f37d9369fddc62964736f6c63430008110033",
  "immutableReferences": {},
  "source": "pragma solidity ^0.8.0;\n\ncontract ToDoList {\n    struct Task {\n        string description;\n        bool completed;\n    }\n\n    Task[] public tasks;\n\n    function addTask(string memory _description) public {\n        tasks.push(Task(_description, false));\n    }\n\n    function completeTask(uint _taskId) public {\n        tasks[_taskId].completed = true;\n    }\n}\n",
  "sourcePath": "/Users/kacper/to-do-list/contracts/contract.sol",
  "compiler": {
    "name": "solc",
    "version": "0.8.17+commit.8df45f5f.Emscripten.clang"
  },
  "schemaVersion": "3.4.11",
  "updatedAt": "2023-02-01T22:39:27.795Z",
  "devdoc": {
    "kind": "dev",
    "methods": {},
    "version": 1
  },
  "userdoc": {
    "kind": "user",
    "methods": {},
    "version": 1
  }
}